{
  "contractName": "Storage",
  "abi": [
    {
      "anonymous": false,
      "inputs": [
        {
          "indexed": false,
          "internalType": "uint256",
          "name": "fileId",
          "type": "uint256"
        },
        {
          "indexed": false,
          "internalType": "string",
          "name": "fileHash",
          "type": "string"
        },
        {
          "indexed": false,
          "internalType": "uint256",
          "name": "fileSize",
          "type": "uint256"
        },
        {
          "indexed": false,
          "internalType": "string",
          "name": "fileType",
          "type": "string"
        },
        {
          "indexed": false,
          "internalType": "string",
          "name": "fileName",
          "type": "string"
        },
        {
          "indexed": false,
          "internalType": "string",
          "name": "fileDesc",
          "type": "string"
        },
        {
          "indexed": false,
          "internalType": "uint256",
          "name": "uploadTime",
          "type": "uint256"
        },
        {
          "indexed": false,
          "internalType": "address payable",
          "name": "uploader",
          "type": "address"
        }
      ],
      "name": "FileUploaded",
      "type": "event"
    },
    {
      "inputs": [
        {
          "internalType": "uint256",
          "name": "",
          "type": "uint256"
        }
      ],
      "name": "files",
      "outputs": [
        {
          "internalType": "uint256",
          "name": "fileId",
          "type": "uint256"
        },
        {
          "internalType": "string",
          "name": "fileHash",
          "type": "string"
        },
        {
          "internalType": "uint256",
          "name": "fileSize",
          "type": "uint256"
        },
        {
          "internalType": "string",
          "name": "fileType",
          "type": "string"
        },
        {
          "internalType": "string",
          "name": "fileName",
          "type": "string"
        },
        {
          "internalType": "string",
          "name": "fileDesc",
          "type": "string"
        },
        {
          "internalType": "uint256",
          "name": "uploadTime",
          "type": "uint256"
        },
        {
          "internalType": "address payable",
          "name": "uploader",
          "type": "address"
        }
      ],
      "stateMutability": "view",
      "type": "function",
      "constant": true
    },
    {
      "inputs": [],
      "name": "filesUploaded",
      "outputs": [
        {
          "internalType": "uint256",
          "name": "",
          "type": "uint256"
        }
      ],
      "stateMutability": "view",
      "type": "function",
      "constant": true
    },
    {
      "inputs": [],
      "name": "name",
      "outputs": [
        {
          "internalType": "string",
          "name": "",
          "type": "string"
        }
      ],
      "stateMutability": "view",
      "type": "function",
      "constant": true
    },
    {
      "inputs": [
        {
          "internalType": "string",
          "name": "_fileHash",
          "type": "string"
        },
        {
          "internalType": "uint256",
          "name": "_fileSize",
          "type": "uint256"
        },
        {
          "internalType": "string",
          "name": "_fileType",
          "type": "string"
        },
        {
          "internalType": "string",
          "name": "_fileName",
          "type": "string"
        },
        {
          "internalType": "string",
          "name": "_fileDesc",
          "type": "string"
        }
      ],
      "name": "uploadFile",
      "outputs": [],
      "stateMutability": "nonpayable",
      "type": "function"
    }
  ],
  "bytecode": "0x60806040526040518060400160405280601581526020017f446563656e7472616c697a65642044726f70626f780000000000000000000000815250600090805190602001906200005192919062000066565b503480156200005f57600080fd5b506200017b565b828054620000749062000116565b90600052602060002090601f016020900481019282620000985760008555620000e4565b82601f10620000b357805160ff1916838001178555620000e4565b82800160010185558215620000e4579182015b82811115620000e3578251825591602001919060010190620000c6565b5b509050620000f39190620000f7565b5090565b5b8082111562000112576000816000905550600101620000f8565b5090565b600060028204905060018216806200012f57607f821691505b602082108114156200014657620001456200014c565b5b50919050565b7f4e487b7100000000000000000000000000000000000000000000000000000000600052602260045260246000fd5b610f57806200018b6000396000f3fe608060405234801561001057600080fd5b506004361061004c5760003560e01c806306fdde0314610051578063e82d9d331461006f578063f4c714b41461008b578063f8aaf31a146100c2575b600080fd5b6100596100e0565b6040516100669190610b5f565b60405180910390f35b61008960048036038101906100849190610888565b61016e565b005b6100a560048036038101906100a0919061095f565b6104da565b6040516100b9989796959493929190610c5c565b60405180910390f35b6100ca610762565b6040516100d79190610c41565b60405180910390f35b600080546100ed90610df1565b80601f016020809104026020016040519081016040528092919081815260200182805461011990610df1565b80156101665780601f1061013b57610100808354040283529160200191610166565b820191906000526020600020905b81548152906001019060200180831161014957829003601f168201915b505050505081565b60008551116101b2576040517f08c379a00000000000000000000000000000000000000000000000000000000081526004016101a990610c01565b60405180910390fd5b600084116101f5576040517f08c379a00000000000000000000000000000000000000000000000000000000081526004016101ec90610ba1565b60405180910390fd5b6000835111610239576040517f08c379a000000000000000000000000000000000000000000000000000000000815260040161023090610be1565b60405180910390fd5b600082511161027d576040517f08c379a000000000000000000000000000000000000000000000000000000000815260040161027490610c21565b60405180910390fd5b60008151116102c1576040517f08c379a00000000000000000000000000000000000000000000000000000000081526004016102b890610bc1565b60405180910390fd5b600073ffffffffffffffffffffffffffffffffffffffff163373ffffffffffffffffffffffffffffffffffffffff161415610331576040517f08c379a000000000000000000000000000000000000000000000000000000000815260040161032890610b81565b60405180910390fd5b60405180610100016040528060015481526020018681526020018581526020018481526020018381526020018281526020014281526020013373ffffffffffffffffffffffffffffffffffffffff168152506002600060015481526020019081526020016000206000820151816000015560208201518160010190805190602001906103be929190610768565b506040820151816002015560608201518160030190805190602001906103e5929190610768565b506080820151816004019080519060200190610402929190610768565b5060a082015181600501908051906020019061041f929190610768565b5060c0820151816006015560e08201518160070160006101000a81548173ffffffffffffffffffffffffffffffffffffffff021916908373ffffffffffffffffffffffffffffffffffffffff1602179055509050506001600081548092919061048790610e23565b91905055507f6e95bbaa37a5fdec42a312e049dea2fe6160ebe659214d3409b4f91f164c2f52600154868686868642336040516104cb989796959493929190610c5c565b60405180910390a15050505050565b600260205280600052604060002060009150905080600001549080600101805461050390610df1565b80601f016020809104026020016040519081016040528092919081815260200182805461052f90610df1565b801561057c5780601f106105515761010080835404028352916020019161057c565b820191906000526020600020905b81548152906001019060200180831161055f57829003601f168201915b50505050509080600201549080600301805461059790610df1565b80601f01602080910402602001604051908101604052809291908181526020018280546105c390610df1565b80156106105780601f106105e557610100808354040283529160200191610610565b820191906000526020600020905b8154815290600101906020018083116105f357829003601f168201915b50505050509080600401805461062590610df1565b80601f016020809104026020016040519081016040528092919081815260200182805461065190610df1565b801561069e5780601f106106735761010080835404028352916020019161069e565b820191906000526020600020905b81548152906001019060200180831161068157829003601f168201915b5050505050908060050180546106b390610df1565b80601f01602080910402602001604051908101604052809291908181526020018280546106df90610df1565b801561072c5780601f106107015761010080835404028352916020019161072c565b820191906000526020600020905b81548152906001019060200180831161070f57829003601f168201915b5050505050908060060154908060070160009054906101000a900473ffffffffffffffffffffffffffffffffffffffff16905088565b60015481565b82805461077490610df1565b90600052602060002090601f01602090048101928261079657600085556107dd565b82601f106107af57805160ff19168380011785556107dd565b828001600101855582156107dd579182015b828111156107dc5782518255916020019190600101906107c1565b5b5090506107ea91906107ee565b5090565b5b808211156108075760008160009055506001016107ef565b5090565b600061081e61081984610d27565b610cf6565b90508281526020810184848401111561083657600080fd5b610841848285610daf565b509392505050565b600082601f83011261085a57600080fd5b813561086a84826020860161080b565b91505092915050565b60008135905061088281610f0a565b92915050565b600080600080600060a086880312156108a057600080fd5b600086013567ffffffffffffffff8111156108ba57600080fd5b6108c688828901610849565b95505060206108d788828901610873565b945050604086013567ffffffffffffffff8111156108f457600080fd5b61090088828901610849565b935050606086013567ffffffffffffffff81111561091d57600080fd5b61092988828901610849565b925050608086013567ffffffffffffffff81111561094657600080fd5b61095288828901610849565b9150509295509295909350565b60006020828403121561097157600080fd5b600061097f84828501610873565b91505092915050565b61099181610d73565b82525050565b60006109a282610d57565b6109ac8185610d62565b93506109bc818560208601610dbe565b6109c581610ef9565b840191505092915050565b60006109dd600f83610d62565b91507f496e76616c6964206164647265737300000000000000000000000000000000006000830152602082019050919050565b6000610a1d601583610d62565b91507f46696c652073697a65206e6f742070726573656e7400000000000000000000006000830152602082019050919050565b6000610a5d601c83610d62565b91507f46696c65206465736372697074696f6e206e6f742070726573656e74000000006000830152602082019050919050565b6000610a9d601583610d62565b91507f46696c652074797065206e6f742070726573656e7400000000000000000000006000830152602082019050919050565b6000610add601583610d62565b91507f46696c652068617368206e6f742070726573656e7400000000000000000000006000830152602082019050919050565b6000610b1d601583610d62565b91507f46696c65206e616d65206e6f742070726573656e7400000000000000000000006000830152602082019050919050565b610b5981610da5565b82525050565b60006020820190508181036000830152610b798184610997565b905092915050565b60006020820190508181036000830152610b9a816109d0565b9050919050565b60006020820190508181036000830152610bba81610a10565b9050919050565b60006020820190508181036000830152610bda81610a50565b9050919050565b60006020820190508181036000830152610bfa81610a90565b9050919050565b60006020820190508181036000830152610c1a81610ad0565b9050919050565b60006020820190508181036000830152610c3a81610b10565b9050919050565b6000602082019050610c566000830184610b50565b92915050565b600061010082019050610c72600083018b610b50565b8181036020830152610c84818a610997565b9050610c936040830189610b50565b8181036060830152610ca58188610997565b90508181036080830152610cb98187610997565b905081810360a0830152610ccd8186610997565b9050610cdc60c0830185610b50565b610ce960e0830184610988565b9998505050505050505050565b6000604051905081810181811067ffffffffffffffff82111715610d1d57610d1c610eca565b5b8060405250919050565b600067ffffffffffffffff821115610d4257610d41610eca565b5b601f19601f8301169050602081019050919050565b600081519050919050565b600082825260208201905092915050565b6000610d7e82610d85565b9050919050565b600073ffffffffffffffffffffffffffffffffffffffff82169050919050565b6000819050919050565b82818337600083830152505050565b60005b83811015610ddc578082015181840152602081019050610dc1565b83811115610deb576000848401525b50505050565b60006002820490506001821680610e0957607f821691505b60208210811415610e1d57610e1c610e9b565b5b50919050565b6000610e2e82610da5565b91507fffffffffffffffffffffffffffffffffffffffffffffffffffffffffffffffff821415610e6157610e60610e6c565b5b600182019050919050565b7f4e487b7100000000000000000000000000000000000000000000000000000000600052601160045260246000fd5b7f4e487b7100000000000000000000000000000000000000000000000000000000600052602260045260246000fd5b7f4e487b7100000000000000000000000000000000000000000000000000000000600052604160045260246000fd5b6000601f19601f8301169050919050565b610f1381610da5565b8114610f1e57600080fd5b5056fea2646970667358221220a10a34a6e641dfe7d840f2f53cd1d23e297dd27e92fc3e4bfe2d051a15290a0864736f6c63430008000033",
  "immutableReferences": {},
  "source": "// SPDX-License-Identifier: GPL-3.0\r\npragma solidity ^0.8.0;\r\n\r\ncontract Storage {\r\n    string public name = 'Decentralized Dropbox';\r\n    uint public filesUploaded;\r\n    mapping(uint256 => File) public files;\r\n    \r\n    struct File {\r\n        uint fileId;\r\n        string fileHash;\r\n        uint fileSize;\r\n        string fileType;\r\n        string fileName;\r\n        string fileDesc;\r\n        uint uploadTime;\r\n        address payable uploader;\r\n    }\r\n    \r\n    event FileUploaded(uint fileId, string fileHash, uint fileSize, string fileType, string fileName, string fileDesc, uint uploadTime, address payable uploader);\r\n    \r\n    function uploadFile(string memory _fileHash, uint _fileSize, string memory _fileType, string memory _fileName, string memory _fileDesc) public {\r\n        // Require statements that ensure proper uploade \r\n        require(bytes(_fileHash).length > 0, \"File hash not present\");\r\n        require(_fileSize > 0, \"File size not present\");\r\n        require(bytes(_fileType).length > 0, \"File type not present\");\r\n        require(bytes(_fileName).length > 0, \"File name not present\");\r\n        require(bytes(_fileDesc).length > 0, \"File description not present\");\r\n        require(msg.sender != address(0), \"Invalid address\");\r\n        \r\n        files[filesUploaded] = File(filesUploaded, _fileHash, _fileSize, _fileType, _fileName, _fileDesc, block.timestamp, payable(msg.sender));\r\n        filesUploaded++;\r\n        \r\n        // Trigger event when file uploaded \r\n        emit FileUploaded(filesUploaded, _fileHash, _fileSize, _fileType, _fileName, _fileDesc, block.timestamp, payable(msg.sender));\r\n    }\r\n    \r\n}",
  "sourcePath": "C:/Users/zach-/Documents/blockchain/dropbox-clone/contracts/Storage.sol",
  "compiler": {
    "name": "solc",
    "version": "0.8.0+commit.c7dfd78e.Emscripten.clang"
  },
  "schemaVersion": "3.3.4",
  "updatedAt": "2021-04-28T15:04:07.552Z",
  "networkType": "ethereum",
  "devdoc": {
    "kind": "dev",
    "methods": {},
    "version": 1
  },
  "userdoc": {
    "kind": "user",
    "methods": {},
    "version": 1
  }
}